:1000000012C024C023C022C021C020C01FC01EC0F7
:100010001DC01CC01BC01AC019C018C017C016C014
:1000200015C014C013C011241FBECFE5D4E0DEBF3D
:10003000CDBF10E0A0E6B0E0E2EBF1E002C0059039
:100040000D92AC36B107D9F7A7D0B1C0D9CF11BA4C
:100050008FE384BB08958295807F862B982F9062D2
:1000600095BB20ED37E0F9013197F1F785BBC90168
:100070000197F1F7089580E060E0EDDF80E06EE049
:10008000EADF80E060E0E7DF80E061E0E4DF80E07D
:1000900060E0E1DF80E066E0DEDF0895EF92FF924E
:1000A0001F93CF93DF937B01182F1064612F62950C
:1000B0006F7080E0D0DF1F7080E0612FCCDFC0E088
:1000C000D0E0F701EC0FFD1F81E06081C4DF2196D5
:1000D000C031D105B1F7DF91CF911F91FF90EF9023
:1000E000089580E395E70197F1F780E062E0B3DFE0
:1000F00080E197E20197F1F780E062E0ACDF80E019
:1001000068E0A9DF08951F93162F62956F7081E054
:10011000A2DF8CED95E028EC30E0F9013197F1F7A2
:100120000197D9F71F7081E0612F95DF1F91089526
:10013000CF92DF92EF92FF920F931F93CF93DF93B3
:10014000DC010D900020E9F78D0101501040081BE3
:10015000190BEC0180E090E028ECC22ED12C10C0ED
:100160007C010894E11CF11C8E2D6881CCDF8CEDA4
:1001700095E0F6013197F1F70197D9F72196C7017C
:10018000801791076CF3DF91CF911F910F91FF9032
:10019000EF90DF90CF90089511BA8FE384BBA1DF79
:1001A0006ADF80E690E0C4DF80E090E00895F89494
:0201B000FFCF7F
:0C01B200737175697272656C6D616E008E
:00000001FF
