:1000000012C024C023C022C021C020C01FC01EC0F7
:100010001DC01CC01BC01AC019C018C017C016C014
:1000200015C014C013C011241FBECFE5D4E0DEBF3D
:10003000CDBF10E0A0E6B0E0ECE7F1E002C0059033
:100040000D92AE36B107D9F78ED096C0D9CF11BA7E
:100050008FE384BB08958295807F862B982F9062D2
:1000600095BB20ED37E0F9013197F1F785BBC90168
:100070000197F1F7089580E060E0EDDF80E06EE049
:10008000EADF80E060E0E7DF80E061E0E4DF80E07D
:1000900060E0E1DF80E066E0DEDF0895EF92FF924E
:1000A0001F93CF93DF937B01182F1064612F62950C
:1000B0006F7080E0D0DF1F7080E0612FCCDFC0E088
:1000C000D0E0F701EC0FFD1F81E06081C4DF2196D5
:1000D000C031D105B1F7DF91CF911F91FF90EF9023
:1000E000089580E395E70197F1F780E062E0B3DFE0
:1000F00080E197E20197F1F780E062E0ACDF80E019
:1001000068E0A9DF08951F93162F62956F7081E054
:10011000A2DF1F7081E0612F9EDF1F910895EF9293
:10012000FF920F931F93CF93DF93EC010990002070
:10013000E9F72197C81BD90B7C0180E090E009C04A
:100140008C010F5F1F4F802FF70161917F01DBDF73
:10015000C8018C179D07A4F3DF91CF911F910F91D8
:10016000FF90EF90089511BA8FE384BBBADF83DF6D
:0C01700080E690E0D4DFFCCFF894FFCFD5
:0E017C00737175697272656C206D616E0000A2
:00000001FF
