:1000000012C024C023C022C021C020C01FC01EC0F7
:100010001DC01CC01BC01AC019C018C017C016C014
:1000200015C014C013C011241FBECFE5D4E0DEBF3D
:10003000CDBF10E0A0E6B0E0E4E9F1E002C0059039
:100040000D92A236B107D9F797D0A2C0D9CF11BA75
:100050008FE384BB08958295807F862B982F9062D2
:1000600095BB20ED37E0F9013197F1F785BBC90168
:100070000197F1F7089580E060E0EDDF80E06EE049
:10008000EADF80E060E0E7DF80E061E0E4DF80E07D
:1000900060E0E1DF80E066E0DEDF0895EF92FF924E
:1000A0001F93CF93DF937B01182F1064612F62950C
:1000B0006F7080E0D0DF1F7080E0612FCCDFC0E088
:1000C000D0E0F701EC0FFD1F81E06081C4DF2196D5
:1000D000C031D105B1F7DF91CF911F91FF90EF9023
:1000E000089580E395E70197F1F780E062E0B3DFE0
:1000F00080E197E20197F1F780E062E0ACDF80E019
:1001000068E0A9DF08951F93162F62956F7080E055
:10011000A2DF1295107F80E395E70197F1F7129522
:100120001F7080E0612F97DF1F910895EF92FF927B
:100130000F931F93CF93DF938C01C0E0D0E088EC46
:10014000E82EF12CF801EC0FFD1F9E012F5F822F8E
:100150006081D9DF8CED95E0F7013197F1F70197D8
:10016000D9F72196C230D10569F7DF91CF911F9160
:100170000F91FF90EF90089511BA8FE384BBB1DF28
:100180007ADF80E060E670E0BEDF80E090E0089516
:04019000F894FFCF11
:02019400610008
:00000001FF
